:100000000C94F2180C9432190C9432190C94321985
:100010000C9432190C9432190C9432190C94321934
:100020000C9432190C9432190C9432190C94321924
:100030000C9432190C9432190C9432190C94321914
:100040000C9432190C944B7E0C9432190C94321986
:100050000C9432190C94FB7C0C9432190C9450DAE9
:100060000C9432190C94AD480C94A3480C9432199A
:100070000C9432190C9432190C9432190C943219D4
:100080000C9432190C9432190C9432190C943219C4
:100090000C9432190C9432190C9432190C943219B4
:1000A0000C9432190C9432190C9432190C943219A4
:1000B0000C9432190C9432190C9432190C94321994
:1000C0000C9432190C9432190C9432190C94321984
:1000D0000C9432190C9432190C9432190C94321974
:1000E0000C943219084AD73B3BCE016E84BCBFFD4D
:1000F000C12F3D6C74319ABD56833DDA3D00C77FF8
:1001000011BED9E4BB4C3E916BAAAABE0000008090
:100110003F05A84CCDB2D44EB93836A9020C50B91F
:10012000918688083CA6AAAA2ABE000000803F004B
:100130004E414E494E495459494E46CDCCCC3D0ACC
:10014000D7233C17B7D13877CC2B329595E6241FAF
:10015000B14F0A000020410000C84200401C462068
:10016000BCBE4CCA1B0E5AAEC59D74434F4D4D5577
:100170004E49434154494F4E0044525952554E0046
:100180004552524F525300494E464F004543484F47
:100190000053544F505045442E20005072696E74E5
:1001A00065722073746F7070656420647565207467
:1001B0006F206572726F72732E20466978207468A2
:1001C00065206572726F7220616E642075736520A0
:1001D0004D39393920746F20726573746172742ED1
:1001E000202854656D70657261747572652069733D
:1001F0002072657365742E205365742069742061C4
:10020000667465722072657374617274696E6729B1
:100210000A004E6F20436865636B73756D207769C4
:100220007468206C696E65206E756D6265722C2035
:100230004C617374204C696E653A20004E6F204308
:100240006865636B73756D2077697468206C696E7F
:1002500065206E756D6265722C204C617374204C44
:10026000696E653A2000636865636B73756D206D18
:1002700069736D617463682C204C617374204C69E0
:100280006E653A20004C696E65204E756D62657230
:10029000206973206E6F74204C617374204C696EFA
:1002A00065204E756D6265722B312C204C61737424
:1002B000204C696E653A20004D3131300053657233
:1002C00069616C20737461747573206D69736D61FD
:1002D0007463680A00534420726561642065727219
:1002E0006F720A004B494C4C20627574746F6E2F0C
:1002F00070696E0A002121204B494C4C20636175C6
:100300007365642062792000746F6F206D75636877
:1003100020696E6163746976652074696D65202D4E
:100320002063757272656E7420636F6D6D616E64AB
:100330003A20002121204B494C4C206361757365A4
:10034000642062792000627573793A207061757358
:10035000656420666F7220696E7075740A0062753C
:1003600073793A2070617573656420666F722075C9
:100370007365720A00627573793A2070726F6365F3
:100380007373696E670A004D656469612052656D1B
:100390006F766564004D6564696120496E736572AE
:1003A00074656400506C6561736520526573657493
:1003B000005052494E5445522048414C5445440047
:1003C00025533A202553004B494C4C45442E2000E0
:1003D0005072696E7465722068616C7465642E2059
:1003E0006B696C6C28292063616C6C6564210A0060
:1003F0006563686F3A004572726F723A004F464605
:10040000004F4E00486F74656E6420746F6F2063F8
:100410006F6C640A000A0A426564204C6576656C5C
:1004200020436F7272656374696F6E204D617472E0
:1004300069783A00332D706F696E742070726F6244
:10044000696E6720646F6E652E0A0069646C650AC8
:1004500000206F662000706F696E7420004D616E21
:1004600075616C2047323920004D616E75616C20DA
:100470004732392061626F727465640A0020284433
:10048000525952554E2900473239204175746F2018
:10049000426564204C6576656C696E67003F28563E
:1004A000296572626F7365206C6576656C20696D75
:1004B000706C61757369626C652028302D34292E4B
:1004C0000A0020440020204D3230302053002028E4
:1004D00044697361626C6564293A0046696C616DB8
:1004E000656E742073657474696E67730020204DA7
:1004F0003230312058004D617820416363656C656E
:10050000726174696F6E2028756E6974732F73320F
:10051000290020204D3230332058004D617820666C
:1005200065656472617465732028756E6974732FD4
:1005300073290020520020204D32303420500041D9
:100540006363656C65726174696F6E2028756E698E
:1005500074732F7332292028503C7072696E742D89
:10056000616363656C3E20523C72657472616374B2
:100570002D616363656C3E20543C74726176656CDA
:100580002D616363656C3E2900204A0020540020E1
:10059000530020204D323035204200416476616E98
:1005A0006365642028423C6D696E5F7365676D65A5
:1005B0006E745F74696D655F75733E20533C6D6941
:1005C0006E5F66656564726174653E20543C6D695A
:1005D0006E5F74726176656C5F6665656472617486
:1005E000653E204A3C6A756E635F6465763E29000D
:1005F00020440020490020204D3330312050004855
:100600006F74656E642050494400496E736572745E
:100610002066696C616D656E7420616E6420707215
:1006200065737320627574746F6E0A00507265731F
:100630007320627574746F6E20746F2068656174C6
:10064000206E6F7A7A6C650A00496E736572742049
:1006500066696C616D656E7420616E642070726590
:10066000737320627574746F6E0A00203B0020550E
:100670000020204D363033204C0046696C616D659A
:100680006E74206C6F61642F756E6C6F6164003BDB
:10069000200020496E76616C6964206578747275FB
:1006A000646572200047322F4733206261642070F6
:1006B0006172616D65746572730A00536C65657073
:1006C0002E2E2E00436C69636B20746F205265736D
:1006D000756D652E2E2E004E6F204D6F76652E00A7
:1006E000456E642066696C65206C6973740A00420B
:1006F0006567696E2066696C65206C6973740A00B1
:100700004E6F206D656469610A00286E6F2066690E
:100710006C65290043757272656E742066696C653C
:100720003A20005344207072696E74696E672062CB
:1007300079746520004E6F74205344207072696E86
:1007400074696E670A002E0A0044656C6574696FEF
:100750006E206661696C65642C2046696C653A2080
:100760000046696C652064656C657465643A0025B3
:1007700069730025696D2025697300256968202546
:10078000696D202569730025696420256968202525
:10079000696D202569730025697920256964202504
:1007A00069682025696D20256973005072696E742F
:1007B0002074696D653A20006F6B006F6666008C6F
:1007C000018701800179016B0144454255473A0098
:1007D0004D3131322053687574646F776E004D313E
:1007E00031332053005246313030204F46462E00E0
:1007F000434F4E4649475F4558504F5254004D4570
:1008000041545041434B00434F4F4C45525F544578
:100810004D5045524154555245004348414D424583
:10082000525F54454D504552415455524500424146
:1008300042595354455050494E470041524353008A
:100840004D4F54494F4E5F4D4F444553005448451A
:10085000524D414C5F50524F54454354494F4E0006
:10086000455854454E4445445F4D3230004355533E
:10087000544F4D5F4649524D574152455F55504C7C
:100880004F4144004C464E5F5752495445004C4F2F
:100890004E475F46494C454E414D45004155544FEA
:1008A0005245504F52545F53445F53544154555333
:1008B0000053445F575249544500524550454154F6
:1008C000004D554C54495F564F4C554D45005344CF
:1008D000434152440050524F4D50545F5355505075
:1008E0004F525400484F53545F414354494F4E5F59
:1008F000434F4D4D414E445300454D455247454EA3
:1009000043595F50415253455200434153455F4C58
:10091000494748545F4252494748544E4553530053
:10092000544F47474C455F4C494748545300534F39
:100930004654574152455F504F5745520042554922
:100940004C445F50455243454E54004C4556454C2F
:10095000494E475F44415441005A5F50524F42450F
:100960000052554E4F5554004155544F4C45564535
:100970004C005052494E545F4A4F420050524F472C
:1009800052455353004155544F5245504F52545FB6
:1009900054454D50004155544F5245504F52545FAD
:1009A000504F5300564F4C554D4554524943004506
:1009B0004550524F4D0042494E4152595F46494CB5
:1009C000455F5452414E53464552005345524941AA
:1009D0004C5F584F4E5F584F4646004649524D5760
:1009E0004152455F4E414D453A4D61726C696E20F2
:1009F000322E302E392E3720284D61792020392093
:100A0000323032342031303A31313A3030292053CB
:100A10004F555243455F434F44455F55524C3A67EB
:100A200069746875622E636F6D2F4D61726C696EAB
:100A30004669726D776172652F4D61726C696E20C7
:100A400050524F544F434F4C5F56455253494F4EAF
:100A50003A312E30204D414348494E455F5459505C
:100A6000453A52463130302045585452554445524B
:100A70005F434F554E543A3120555549443A6365CA
:100A80006465326132662D343161322D3437343849
:100A90002D396231322D6335356336326633363760
:100AA00066660A002F2F004D31343520533C696EA5
:100AB0006465783E206F7574206F662072616E6782
:100AC000652028302D31290A003F4A206F75742097
:100AD0006F662072616E67652028302E3031207479
:100AE0006F20302E33290A0020580020204D6178D5
:100AF0003A2000200020204D696E3A2000203B2043
:100B00000020204D323131205300536F6674206530
:100B10006E6473746F70730046523A0020466C6FB7
:100B2000773A200064697300656E0043290A00610A
:100B3000626C656420286D696E2074656D7020009C
:100B4000436F6C642065787472756465732061729C
:100B5000652000426564204C6576656C696E67208F
:100B6000004661696C656420746F20656E61626C1B
:100B70006520426564204C6576656C696E670A0085
:100B8000426564204C6576656C20436F72726563C4
:100B900074696F6E204D61747269783A004F6666B1
:100BA00073657473204170706C696564004572727E
:100BB0003A20546F6F206661722100546F6F206677
:100BC00061722066726F6D207265666572656E6314
:100BD0006520706F696E740A00454550524F4D2074
:100BE0004F4B0A002E0A002028302D3130290020DA
:100BF00076616C7565206F7574206F662072616E0A
:100C0000676500416476616E6365204B3D004D3839
:100C10003400446F6E65207072696E74696E67206F
:100C200066696C650A004D3737004D333100496EF7
:100C300076616C69642065787472756465720A0007
:100C400020204D323036205800486F6D65206F6689
:100C500066736574004361703A00436F6F6C696E30
:100C6000672E2E2E00453120255300206661696CC9
:100C70006564212042616420686561746572206941
:100C8000640A00504944204175746F74756E6500A4
:100C900023646566696E652044454641554C545F42
:100CA000004B6420004B6920004B702000206669D7
:100CB0006E697368656421205075742074686520BE
:100CC0006C617374204B702C204B6920616E642022
:100CD0004B6420636F6E7374616E74732066726F01
:100CE0006D2062656C6F7720696E746F20436F6E44
:100CF00066696775726174696F6E2E680A00504983
:100D000044204175746F74756E6500206661696C6E
:100D10006564212074696D656F75740A00504944DB
:100D2000204175746F74756E6500206661696C652D
:100D300064212054656D70657261747572652074EC
:100D40006F6F20686967680A0050494420417574D4
:100D50006F74756E6500504944204379636C657308
:100D60000025532025692F256900204B643A200077
:100D7000204B693A2000204B703A200020436C61E0
:100D80007373696320504944200A002054753A2047
:100D900000204B753A2000206D61783A2000206DCC
:100DA000696E3A200020643A200020626961733A3B
:100DB000200048656174696E672E2E2E00207374C2
:100DC0006172740A00504944204175746F74756EE5
:100DD0006500206661696C6564212054656D7065ED
:100DE00072617475726520746F6F20686967680A34
:100DF00000504944204175746F74756E6500504908
:100E000044204175746F74756E6500A1000000691F
:100E100000A20000006300B00000000900C1000053
:100E2000004100C20000004100C30000004100C4B6
:100E30000000004100C50000004100C60000004164
:100E400045C70000004300C80000004500C900007D
:100E5000004500CD0000004900D10000004E00D543
:100E60000000004F00D60000004F00D700000078BF
:100E700000DC0000005500DD0000005900E000002B
:100E8000006100E10000006100E20000006100E399
:100E90000000006100E40000006100E50000006166
:100EA00000E60000006165E70000006300E8000064
:100EB000006500E90000006500EA0000006500EB45
:100EC0000000006500EC0000006900ED0000006912
:100ED00000EE0000006900EF0000006900F1000072
:100EE000006E00F20000006F00F30000006F00F4DD
:100EF0000000006F00F50000006F00F60000006FBA
:100F000000F80000006F00F90000007500FA000012
:100F1000007500FB0000007500FC0000007500FD7E
:100F20000000007900FF000000790004010000418A
:100F300000050100006100060100004300070100F8
:100F40000063000C01000043000D01000063000E6F
:100F500001000044000F0100006400110100006462
:100F6000001901000065001A01000045001B010086
:100F70000065001F010000670030010000490031DA
:100F80000100006900410100004C00420100006CBA
:100F900000430100004E00440100006E00480100C3
:100FA000006E005801000052005901000072005A02
:100FB00001000053005B01000073005F010000733B
:100FC0000060010000530061010000730065010032
:100FD0000074006F01000075007C0100007A007D44
:100FE0000100005A007E0100007A009201000066B4
:100FF00000E30200007800222000002E001E2100E5
:1010000000507822210000544D902100003C2D9288
:101010002100002D3EB02100000300BB2100000490
:10102000003C2200007E00482200007E3D6022003D
:1010300000213D612200003D00642200003C3D652E
:101040002200003E3DF12300000700A03000003DDB
:101050000021F301000200C2F401000500A200001B
:1010600000EC00B0000000DF00E4000000E100F64A
:10107000000000EF00F7000000FD00FC000000F59C
:1010800000E3020000EB0087030000A5008F0300CF
:1010900000F40098030000F2009E030000E300A3A8
:1010A000030000F600A9030000F400AC030000E018
:1010B00000AD030000E300B1030000E000B2030054
:1010C00000E200B5030000E300B8030000F200BC3A
:1010D000030000E400BE030000E300C0030000F7CB
:1010E00000C1030000E600C3030000E500902100FA
:1010F000007F00922100007E001A220000E8001EFE
:10110000220000F30088250000FF0002300000A14B
:10111000000C300000A2000D300000A3009B300046
:1011200000DE009C300000DF00A03000003D00A188
:10113000300000A700A2300000B100A3300000A8DA
:1011400000A4300000B200A5300000A900A63000C5
:1011500000B300A7300000AA00A8300000B400A926
:10116000300000AB00AA300000B500AB300000B684
:1011700000AC300000B6DEAD300000B700AE30008D
:1011800000B7DEAF300000B800B0300000B8DEB10C
:10119000300000B900B2300000B9DEB3300000BA50
:1011A00000B4300000BADEB5300000BB00B630003D
:1011B00000BBDEB7300000BC00B8300000BCDEB9B8
:1011C000300000BD00BA300000BDDEBB300000BE04
:1011D00000BC300000BEDEBD300000BF00BE3000ED
:1011E00000BFDEBF300000C000C0300000C0DEC164
:1011F000300000C100C2300000C1DEC3300000AFCB
:1012000000C4300000C200C5300000C2DEC630009D
:1012100000C300C7300000C3DEC8300000C400C9EE
:10122000300000C4DECA300000C500CB300000C66C
:1012300000CC300000C700CD300000C800CE300028
:1012400000C900CF300000CA00D0300000CADED193
:10125000300000CADFD2300000CB00D3300000CB1A
:10126000DED4300000CBDFD5300000CC00D630001B
:1012700000CCDED7300000CCDFD8300000CD00D964
:10128000300000CDDEDA300000CDDFDB300000CEF4
:1012900000DC300000CEDEDD300000CEDFDE3000CE
:1012A00000CF00DF300000D000E0300000D100E1CE
:1012B000300000D200E2300000D300E3300000AC88
:1012C00000E4300000D400E5300000AD00E630005E
:1012D00000D500E7300000AE00E8300000D600E99D
:1012E000300000D700EA300000D800EB300000D911
:1012F00000EC300000DA00ED300000DB00EF3000E1
:1013000000DC00F2300000A600F3300000DD00F445
:10131000300000B3DEF7300000DCDEFA300000A65B
:10132000DEFB300000A500FC300000B000FD300006
:1013300000A400074E0000FB0086510000FC0043A3
:10134000530000FA0064FF0000A40065FF0000A540
:101350000066FF0000A60067FF0000A70068FF000E
:1013600000A80069FF0000A9006AFF0000AA006B46
:10137000FF0000AB006CFF0000AC006DFF0000AD93
:10138000006EFF0000AE006FFF0000AF0070FF00B6
:1013900000B00071FF0000B10072FF0000B20073E6
:1013A000FF0000B30074FF0000B40075FF0000B53B
:1013B0000076FF0000B60077FF0000B70078FF005E
:1013C00000B80079FF0000B9007AFF0000BA007B86
:1013D000FF0000BB007CFF0000BC007DFF0000BDE3
:1013E000007EFF0000BE007FFF0000BF0080FF0006
:1013F00000C00081FF0000C10082FF0000C2008326
:10140000FF0000C30084FF0000C40085FF0000C58A
:101410000086FF0000C60087FF0000C70088FF00AD
:1014200000C80089FF0000C9008AFF0000CA008BC5
:10143000FF0000CB008CFF0000CC008DFF0000CD32
:10144000008EFF0000CE008FFF0000CF0090FF0055
:1014500000D00091FF0000D10092FF0000D2009365
:10146000FF0000D30094FF0000D40095FF0000D5DA
:101470000096FF0000D60097FF0000D70098FF00FD
:1014800000D80099FF0000D9009AFF0000DA009B05
:10149000FF0000DB009CFF0000DC009DFF0000DD82
:1014A000009EFF0000DE009FFF0000DF00E5FF0060
:1014B000005C0000000000010204040000001C1C8D
:1014C0000C040404020100000000000408100000E5
:1014D0000000002D2D2D2D2D2D007C4D61726C698D
:1014E0006E7C002D2D2D2D2D2D00001C1F11111F88
:1014F00000000006191803130C00040E1F041C0042
:101500000000000E1315110E00001C101817050620
:101510000500040A0A0A0A11110E0C12120C00002E
:101520000000001F1511151F000042656400456E84
:10153000636C6F73757265002568753A2530326883
:10154000750025303268753A2530326875002530CF
:10155000326875272530326875002D2D2D005344D3
:101560000020202020202020002020202000507259
:10157000696E742041626F72746564004D3235008B
:1015800050617573696E672E2E2E004D3234004502
:101590004550524F4D2056657273696F6E204572EB
:1015A000726F7200454550524F4D20496E64657808
:1015B000204572726F7200454550524F4D20435284
:1015C00043204572726F72003F0049676E6F72650B
:1015D00000526573657400496E697469616C697A5B
:1015E0006520454550524F4D004C6F6164206D6D34
:1015F00000556E6C6F6164206D6D0046696C2E2025
:101600004469612E004520696E206D6D5E33004196
:101610006476616E6365204B004D33303320553165
:10162000204525692053256900504944204175749F
:101630006F74756E65202A00200220466163740075
:101640002002204D6178002002204D696E004F6617
:1016500066004F6E004175746F74656D70004D6962
:101660006E2054726176656C205370656564004D20
:10167000696E2056656C6F63697479004D617820DE
:1016800040205370656564004D61782045204163BA
:1016900063656C004D6178204020416363656C0098
:1016A00054726176656C20416363656C00526574A9
:1016B0007261637420416363656C00416363656CB0
:1016C00000402073746570732F6D6D004164766106
:1016D0006E6365642053657474696E6773003F00C0
:1016E00043616E63656C00496E6974004D34323835
:1016F00000496E697469616C697A6520454550528C
:101700004F4D0046696C616D656E740054656D7077
:10171000657261747572650053746570732F6D6DB9
:10172000004A756E6374696F6E204465760041638C
:1017300063656C65726174696F6E004D61782053EA
:101740007065656420286D6D2F73290053657420C2
:10175000486F6D65204F66667365747300436F6EE6
:1017600066696775726174696F6E004C6576656C49
:10177000696E6720446F6E6521004D6F7665205A53
:1017800000473239563100554E4C4F4144204649AE
:101790004C414D454E54004C4F41442046494C412C
:1017A0004D454E540046494C414D454E542043480A
:1017B000414E47450041425300504C41004E657830
:1017C0007420506F696E74002569202F20257500E4
:1017D000473239563100436C69636B20746F204285
:1017E0006567696E00486F6D696E672058595A00C9
:1017F00053746F72652053657474696E6773004C1F
:101800006F61642053657474696E6773004F666618
:10181000004F6E00426564204C6576656C696E67AA
:10182000004C6576656C20426564004D6F74696F8D
:101830006E004E6F7A7A6C6500436F6E66696775ED
:10184000726174696F6E00526573746F72652044C3
:10185000656661756C7473004C6F616420536574C8
:1018600074696E67730053746F7265205365747486
:10187000696E677300507265686561742024204347
:101880006F6E6600416476616E63656420536574B3
:1018900074696E6773004D61696E004D3730322098
:1018A000542564004D3630302042302054256400E9
:1018B0004D373032203B2564004D373031205425E0
:1018C00064004368616E67652046696C616D656E92
:1018D00074005072656865617420437573746F6D30
:1018E00000507265686561742024004261636B007A
:1018F0004D363030423000436F6E74696E7565004E
:101900005075726765206D6F726500524553554D75
:1019100045204F5054494F4E533A005052494E546F
:10192000205041555345440020204E6F7A7A6C6513
:101930003A20005061726B696E672E2E2E000000F7
:101940005761697420666F720066696C616D656EBF
:1019500074206368616E676500746F2073746172D0
:1019600074005761697420666F720066696C616DFE
:10197000656E7420756E6C6F616400004E6F7A7ACC
:101980006C652068656174696E6700506C65617391
:101990006520776169742E2E2E0000507265737376
:1019A00020627574746F6E00746F206865617420B6
:1019B0006E6F7A7A6C650000496E7365727420668A
:1019C000696C616D656E7400616E64207072657320
:1019D0007320627574746F6E00746F20636F6E7421
:1019E000696E7565005761697420666F720066697B
:1019F0006C616D656E74206C6F616400005072657F
:101A0000737320427574746F6E00746F2072657307
:101A1000756D65207072696E74000057616974207D
:101A2000666F72207072696E7400746F20726573D5
:101A3000756D652E2E2E00005761697420666F72D9
:101A40000066696C616D656E742070757267650003
:101A50000052756E617761792057617463683A202E
:101A60004F4E004D61782054656D70003236300065
:101A70004D696E2054656D7000350045313A204542
:101A800050434F53203130304B0050535500476581
:101A90006E657269630050726F746F636F6C0031B2
:101AA0002E300042617564003131353230300052E1
:101AB000414D505320312E3400332D506F696E74D8
:101AC000204C6576656C696E670045787472756444
:101AD0006572730031006D61726C696E66772E6F8E
:101AE000726700524631303000323032332D303799
:101AF0002D303400322E302E392E37004D61726C6D
:101B0000696E00546865726D6973746F7273004218
:101B10006F61726420496E666F005072696E746501
:101B20007220496E666F004D61696E003F00426130
:101B3000636B0053746F70003F004E4F0059455364
:101B4000004E6F204D65646961005072696E7420AB
:101B500066726F6D204D65646961004368616E67F0
:101B600065204D65646961004D32310041626F75D9
:101B700074205072696E746572004368616E6765A7
:101B80002046696C616D656E7400436F6E666967AF
:101B900075726174696F6E0054656D706572617401
:101BA000757265004D6F74696F6E00526573756D67
:101BB00065205072696E740054756E650053746FC1
:101BC00070205072696E7400506175736520507298
:101BD000696E7400496E666F2053637265656E00AE
:101BE0003F005374617274205072696E74004361D7
:101BF0006E63656C005072696E740043616E6E6F47
:101C00007420656E746572207375626469723A201F
:101C10000005202E2E004D61696E002100486F7472
:101C2000656E6420746F6F20636F6C640042616343
:101C30006B0050726F63656564004D6F766520457B
:101C400078747275646572004D6F74696F6E0044CC
:101C5000697361626C65205374657070657273009E
:101C60004D383400426564204C6576656C696E675A
:101C7000004175746F20486F6D6500473238004D24
:101C800061696E00B917B517436F6F6C646F776E3B
:101C900000507265686561742024004E6F7A7A6C1A
:101CA00065004D61696E00416476616E6365204B2D
:101CB00000466C6F77004E6F7A7A6C6500537065E2
:101CC0006564004D61696E006F70656E0054524925
:101CD000474745524544003A20007A5F6D696E00DF
:101CE000795F6D617800785F6D696E005265706F25
:101CF0007274696E6720656E6473746F702073749C
:101D0000617475730A0020746F6F206C6F6E6720AA
:101D1000657874727573696F6E2070726576656E22
:101D20007465640A0020636F6C6420657874727552
:101D300073696F6E2070726576656E7465640A00F3
:101D4000000000000000DC42000000005761726EDD
:101D5000696E673A20486F6D696E672042756D70D5
:101D60002044697669736F72203C20310A000202B8
:101D7000040000D2420000DC420000D2420000A079
:101D8000400000A0400000004000000001000000F2
:101D900001000080005555550000004000333333EA
:101DA00000AAAA2A004992240000002000C7711C42
:101DB0000099991900D1451700555515003BB113ED
:101DC000002449120011111100000010000F0F0F24
:101DD00000E3380E0043790D00CCCC0C00C3300C6E
:101DE00000E8A20B0064210B00AAAA0A00703D0AB9
:101DF000009DD80900427B090092240900DCD30829
:101E000000888808001042080000000800F0C107A0
:101E1000008787070075500700711C07003EEB061E
:101E200000A1BC06006990060066660600703E06CA
:101E3000006118060017F4050074D105005BB005B9
:101E400000B290050062720500555505007839050D
:101E500000B81E0500050505004EEC040087D404FB
:101E600000A1BD040090A7040049920400C17D04B4
:101E700000EE690400C7560400444404005C3204C8
:101E8000000821040041100400000004003FF0039A
:101E900000F8E0030026D20300C3C30300CCB5035F
:101EA000003AA803000A9B0300388E0300C0810398
:101EB000009F750300D0690300505E03001D5303AB
:101EC0000034480300913D03003333030016290317
:101ED00000381F030097150300300C0300030303B1
:101EE000000BFA020049F10200BAE802005CE002CD
:101EF000002DD802002DD0020059C80200B0C00247
:101F00000031B90200DAB10200AAAA0200A0A302BD
:101F100000BC9C0200FA9502005C8F0200DF880280
:101F20000082820200457C020027760200277002B0
:101F300000436A02007C640200D05E02003F590246
:101F400000C8530200FFFDFCFAF8F6F4F2F0EEECE4
:101F5000EAE9E7E5E3E1E0DEDCDAD9D7D5D4D2D0AF
:101F6000CFCDCBCAC8C7C5C3C2C0BFBDBCBAB9B745
:101F7000B6B4B3B2B0AFADACAAA9A8A6A5A4A2A1AD
:101F8000A09E9D9C9A99989795949392908F8E8DF0
:101F90008B8A8988878684838281807F7E7D7B7A15
:101FA000797877767574737271706F6E6D6C6B6A19
:101FB000696867666564636261605F5E5D5C5B5A09
:101FC0005958585756555453525150504F4E4D4CE6
:101FD0004B4A4A4948474646454443424241403FAE
:101FE0003E3E3D3C3B3B3A39383837363535343365
:101FF00032323130302F2E2E2D2C2B2B2A2929280E
:10200000272726252524232322212120201F1E1EA9
:102010001D1C1C1B1B1A1919181817161615151438
:10202000131312121111100F0F0E0E0D0D0C0C0BBD
:102030000A0A090908080707060605050404030338
:1020400002020100000000D2420000DC420000D287
:102050004200000000000000000000000053657412
:1020600074696E67732053746F72656400290A0087
:102070002062797465733B2063726320005365743A
:1020800074696E67732053746F726564202800480A
:10209000617264636F6465642044656661756C7425
:1020A0002053657474696E6773204C6F6164656456
:1020B0000020286D6D2900203B204C6576656C69F9
:1020C0006E67200020204D3432302053004175745B
:1020D0006F20426564204C6576656C696E670020F0
:1020E000480020204D3134352053004D6174657215
:1020F00069616C2068656174757020706172616DD2
:1021000065746572730020204D393030204B004CCF
:10211000696E65617220416476616E63650020209E
:102120004D3134392043203B20556E69747320694A
:102130006E2043656C736975730A0054656D706534
:1021400072617475726520556E6974730020204742
:102150003231203B004C696E65617220556E6974A6
:102160007300454550524F4D206461746173697A24
:1021700065206572726F722E0A00290A002062794A
:102180007465733B2063726320002073746F726503
:10219000642073657474696E677320726574726904
:1021A00065766564202800202863616C63756C6126
:1021B00074656429210A0020213D200045455052C4
:1021C0004F4D20435243206D69736D6174636820E5
:1021D0002D202873746F7265642920002053697A5A
:1021E000653A2000496E6465783A20000000964305
:1021F000000096430000A0410000C841D7A39D42C3
:10220000D7A39D42000048440000E842F4010000CA
:10221000F40100006400000010270000204D6172EE
:102220006C696E3D563836290A00454550524F4D6F
:102230002076657273696F6E206D69736D6174636A
:10224000682028454550524F4D3D0024F4D430506D
:10225000C38E20C2A24017828B7011127A910D8119
:102260006CD90AA861E108C7586607615143061E88
:102270004B5D05C145A7041A411104093D9803713E
:102280003931034036DB0265339102D43054028089
:102290002E1D02632CEE01752AC501B028A0011085
:1022A0002781018F2564012B244B01E0223401ACEE
:1022B000211F018D200D01801FFC00841EED009761
:1022C0001DDF00B81CD200E61BC600201BBC00644A
:1022D0001AB200B219A8000A19A0006A189900D110
:1022E00017910040178B00B516840031167E00B39D
:1022F0001579003A157300C7146F0058146A00EE80
:102300001366008813630025135E00C7125B006C20
:1023100012570015125400C111510070114F0021C5
:10232000114B00D61049008D1047004610440002A2
:10233000104200C00F4000800F3E00420F3C0006DC
:102340000F3B00CB0E3800930E37005C0E35002794
:102350000E3400F30D3200C10D3100900D300060DD
:102360000D2E00320D2D00050D2C00D90C2B00AECA
:102370000C2900850C29005C0C2700350C27000E69
:102380000C2600E80B2400C40B2400A00B23007DC6
:102390000B23005A0B2100390B2100180B2000F8E9
:1023A0000A1F00D90A1E00BB0A1E009D0A1D0080DC
:1023B0000A1D00630A1C00470A1B002C0A1B00119F
:1023C0000A1A00F7091A00DD091900C4091900AB3F
:1023D000091900920917007B091800630917004CBE
:1023E00009160036091600200916000A091500F51D
:1023F000081500E0081400CC081400B8081400A464
:10240000081400900813007D0812006B0813005890
:1024100008120046081200340811002308110012A7
:1024200008110001081100F0071000E0071000D0AB
:10243000071000C0071000B0070F00A1071000919F
:10244000070E0083070F0074070F0065070E005783
:10245000070E0049070E003B070D002E070E002057
:10246000070D0013070D0006070D00F9060C00ED1F
:10247000060D00E0060C00D4060C00C8060C00BCDB
:10248000060C00B0060C00A4060B0099060C008D8B
:10249000060B0082060B0077060B006C060B006132
:1024A000060A0057060B004C060A0042060A0038CE
:1024B000060A002E060A0024060A001A060A001060
:1024C00006090007060A00FD050900F4050900EBEE
:1024D000050900E2050900D9050900D0050900C772
:1024E000050900BE050900B5050800AD050800A5F1
:1024F0000509009C050800940508008C0508008467
:102500000508007C050800740508006C05070065D7
:102510000508005D050700560508004E0507004741
:102520000507004005080038050700310507002AA7
:10253000050700230507001C050600160507000F08
:102540000507000805060002050700FB040600F564
:10255000040700EE040600E8040600E2040700DBBE
:10256000040600D5040600CF040600C9040600C313
:10257000040600BD040600B7040600B1040500AC63
:10258000040600A6040600A00405009B04060095AE
:10259000040500900406008A0405008504050080F7
:1025A0000406007A04050075040500700405006B3C
:1025B00004050066040500610405005C040500577D
:1025C000040500520405004D0405004804050043BD
:1025D0000405003E0404003A0405003504050030FB
:1025E0000404002C04050027040400230405001E35
:1025F0000404001A04040016040500110404000D6C
:10260000040400090405000404040000040400FCA0
:10261000030400F8030400F4030400F0030400ECD6
:10262000030400E8030400E4030400E0030400DC06
:10263000030400D8030400D4030400D0030400CC36
:10264000030400C8030300C503030024F404D920D5
:102650001BC40C5C0E9804C4095F0265077101F489
:1026600005F900FB04B30048048700C10369005862
:1026700003550003034500BE023A008402310053B3
:10268000022A002902250004022000E4011C00C8DF
:10269000011900AF011700980114008401130071A3
:1026A0000110006101100051010E0043010D0036C0
:1026B000010B002B010B0020010B00150109000C80
:1026C00001090003010800FB000800F3000800EB0B
:1026D000000700E4000600DE000600D8000600D275
:1026E000000600CC000500C7000500C2000500BDC3
:1026F000000400B9000400B5000400B1000400ADFE
:10270000000400A9000400A5000300A20003009F2C
:102710000004009B00030098000300950002009352
:10272000000300900003008D0002008B000300886E
:102730000002008600020084000300810002007F86
:102740000002007D0002007B000200790002007799
:1027500000010076000200740002007200010071A6
:102760000002006F0002006D0001006C0002006AB0
:1027700000010069000200670001006600010065B9
:1027800000010064000200620001006100010060BD
:102790000001005F0002005D0001005C0001005BC1
:1027A0000001005A000100590001005800010057C3
:1027B00000010056000100550001005400010053C3
:1027C00000000053000100520001005100010050C0
:1027D0000001004F0001004E0000004E0001004DBE
:1027E0000001004C0001004B0000004B0001004ABA
:1027F00000010049000100480000004800010047B6
:1028000000010046000000460001004500000045B0
:1028100000010044000100430000004300010042A9
:1028200000000042000100410000004100010040A2
:102830000001003F0000003F0001003E0000003E9C
:102840000001003D0000003D0001003C0000003C94
:102850000000003C0001003B0000003B0001003A8A
:102860000000003A00010039000000390001003882
:102870000000003800000038000100370000003779
:10288000000100360000003600000036000100356F
:102890000000003500000035000100340000003465
:1028A000000000340001003300000033000000335A
:1028B000000100320000003200000032000100314F
:1028C0000000003100000031000100300000003045
:1028D000000000300001002F0000002F0000002F3A
:1028E0000000002F0001002E0000002E0000002E2E
:1028F0000001002D0000002D0000002D0000002D23
:102900000001002C0000002C0000002C0000002C16
:102910000001002B0000002B0000002B0000002B0A
:102920000001002A0000002A0000002A0000002AFE
:1029300000010029000000290000002900000029F2
:1029400000000029000100280000002800000028E5
:1029500000000028000000280001002700000027D8
:1029600000000027000000270000002700010026CB
:1029700000000026000000260000002600000026BF
:1029800000010025000000250000002500000025B2
:1029900000000025000000250001002400000024A4
:1029A0000000002400000024000000240001002397
:1029B000000000230000002300000023000000238B
:1029C000000000230000002300010022000000227C
:1029D000000000220000002200000022000000226F
:1029E0000001002100000021000000210000002162
:1029F0000000002100000021000000210001002053
:102A00000000002000000020000000200000002046
:102A10000000002000000020000000200001001F36
:102A20000000001F0000001F0000001F0000001F2A
:102A30000000001F0000001F0001001E0000001E1B
:102A40000000001E0000001E000000232C0000B843
:102A5000220000561800003A0F0000B8080000B12C
:102A6000040000710200003E01000020436F756EFB
:102A70007420583A000045310045002C20737973CA
:102A800074656D2073746F70706564212048656192
:102A90007465725F49443A2000544845524D414C98
:102AA0002052554E4157415900546865726D616C12
:102AB0002052756E617761790048656174696E674F
:102AC000204661696C65640048656174696E6720C1
:102AD0006661696C6564004572723A204D415854D4
:102AE000454D50004D415854454D50207472696712
:102AF0006765726564004572723A204D494E5445CF
:102B00004D50004D494E54454D50207472696767D1
:102B10006572656400202F0020403A0020573A007B
:102B20007C3C3E5E2B3D3F2F5B5D3B2C2A225C00B4
:102B300043616E6E6F74206F70656E207375626492
:102B4000697220004D6564696120496E6974204690
:102B500061696C0053442063617264206F6B0A00EA
:102B60006F70656E526F6F74206661696C65640A80
:102B700000766F6C756D652E696E6974206661698B
:102B80006C65640A004E6F20534420636172640ACE
:102B9000000A4D3234004D3233202573002E0A00D6
:102BA0006F70656E206661696C65642C2046696C87
:102BB000653A200046696C652073656C65637465D1
:102BC000640A002053697A653A200046696C6520E2
:102BD0006F70656E65643A2000454E44205355423F
:102BE000524F5554494E450A002220706F730022FF
:102BF00020706172656E743A2200535542524F55EF
:102C000054494E452043414C4C20746172676574B1
:102C10003A220053756263616C6C204F7665726670
:102C20006C6F77004578636565646564206D6178D5
:102C300020535542524F5554494E45206465707497
:102C4000683A0057726974696E6720746F2066690C
:102C50006C653A2000667265736800646F696E6720
:102C6000002066696C653A20004E6F7720002F6166
:102C700075746F25632E67006D61726C696E66777F
:102C80002E6F7267006D61726C696E66772E6F725F
:102C90006700322E302E392E3700322E302E392E4C
:102CA0003700006D61726C696E66772E6F72670017
:102CB0006D61726C696E66772E6F72670020322EBE
:102CC000302E392E370070012C0190012701B00100
:102CD0002201C0011D01F001180110021301300290
:102CE0000E016002090190020401C002FF0000030E
:102CF000FA004003F5008003F000D003EB0020044D
:102D0000E6007004E100E004DC004005D700C005E7
:102D1000D2004006CD00D006C8008007C3003008AE
:102D2000BE00F008B900C009B400B00AAF00B00B93
:102D3000AA00D00CA500000EA000500F9B00C010F0
:102D400096005012910000148C00C0158700B01737
:102D50008200B0197D00D01B7800001E7300402057
:102D60006E0090226900F024640040275F009029E3
:102D70005A00E02B5500102E500020304B0010322E
:102D80004600E033410090353C0010373700703882
:102D90003200A0392D00B03A2800A03B2300603C4F
:102DA0001E00103D1900903D1400103E0F00703EB3
:102DB0000A00C03E0500003F0000403FFBFF803F8F
:102DC000F6FFC03FF1FF2020506C616E6E657242CD
:102DD000756666657242797465733A2000204672A2
:102DE0006565204D656D6F72793A200020436F6DE7
:102DF00070696C65643A204D617920203920323049
:102E000032340A00204C617374205570646174651B
:102E1000643A20323032332D30372D3034207C204C
:102E2000417574686F723A20286E6F6E652C20644D
:102E3000656661756C7420636F6E666967290A0048
:102E40004D61726C696E20322E302E392E370A0099
:102E500020536F6674776172652052657365740ADA
:102E600000205761746368646F67205265736574EE
:102E70000A002042726F776E206F7574205265735E
:102E800065740A002045787465726E616C20526525
:102E90007365740A00506F77657255700A00737419
:102EA0006172740A004732385859004D3130303160
:102EB000006F6B006572726F722077726974696E51
:102EC0006720746F2066696C650A00446F6E652028
:102ED000736176696E672066696C652E0A004D32F3
:102EE0003900456E6473746F707300255320256339
:102EF00020256320256320256300205A3A002059AD
:102F00003A0020583A00656E6473746F70732068DD
:102F100069743A200000000A0B02090C0D0E080724
:102F20000304010000000000000000000000000099
:102F30000000000000000000000000000000000091
:102F4000001211100000000000000000000000004E
:102F500000000000000000000000004D6F766520BA
:102F6000246D6D00302E303235004D6F7665203087
:102F70002E316D6D004D6F766520316D6D004D6F9A
:102F800076652031306D6D004D6F76652041786932
:102F900073004D6F7665202A004D6F7665204000E6
:102FA0005072696E742066726F6D204D6564696140
:102FB0000000002200250028002B002E00310034E4
:102FC0000002010000050108010B0100002100249E
:102FD0000027002A002D003000330001010000040A
:102FE0000107010A0105050505070508080808028B
:102FF0000202020A0A080804040404010101010192
:103000000101010303030303030303040707070C80
:103010000C0C0C0C0C0C0C02020202060606060636
:103020000606060B0B0B0B0B0B0B0B0102102020E3
:10303000080810204010204080020102010804020C
:103040000101020408102040808040201008040282
:1030500001800402018040201008040201080402DB
:1030600001010204081020408001020408102040E1
:1030700080486F6D696E67204661696C656400FF0A
:1030800001FF220A00556E6B6E6F776E20636F6DC5
:103090006D616E643A202200204500205A002059BC
:1030A0000020204D39322058005374657073207011
:1030B000657220756E6974004572726F7220777246
:1030C0006974696E6720746F20454550524F4D21D9
:1030D0000A00DB0FC93F45BCDA3F8FB30240FCF06A
:1030E000274056946140FE4B9B4084A5D840E02386
:1030F0001841346A5641E859974164DBD5416E273F
:103100001742B4B75542CE1A9742C8AED542B588D9
:103110005A43D40684BFA65FA7BF7443E0BF10B173
:103120001AC01C2C58C0E8F697C0B849D6C04E4EFD
:1031300017C124D355C1802497C1A0B5D5C1121A97
:1031400017C244AE55C2781797C26CACD5C2678817
:103150005AC320746F6F206C6F6E6720657874722D
:103160007573696F6E2070726576656E7465640A3A
:103170000020636F6C6420657874727573696F6E7C
:103180002070726576656E7465640A00486F6D65BF
:1031900020257325732573204669727374002045BA
:1031A0003A00205A3A0020593A00583A006F6B0A08
:1031B00000526573656E643A20005246313030200B
:1031C00052656164792E005072696E74696E672E63
:1031D0002E2E005072696E74205061757365640004
:1031E0005EEDC2F611241FBECFEFD1E2DEBFCDBF30
:1031F00000E00CBF84B78093451514BE0FB6F89459
:10320000A8958091600088618093600010926000B2
:103210000FBE13E0A0E0B2E0EAE2F6E002E00BBF8E
:1032200002C007900D92A83BB107D9F725E1A8EBA2
:10323000B3E001C01D92A534B207E1F718E1C1EF78
:10324000D8E100E006C021970109802FFE010E940D
:10325000ACFFC03FD10780E00807A9F70E9487EEC6
:103260000D9404030C9400008F929F92AF92BF9232
:10327000CF92DF92EF92FF92CF936B017C0120E01F
:1032800030E0A9010E943BFB87FDC3C06DEB77E3F3
:1032900086E095E3A70196010E94CDFF6B017C01BA
:1032A00020E030E0A9010E943BFB87FFB7C0C701C7
:1032B000B601905820E030E040E251E40E94A0FBCB
:1032C00020E030E040E251E40E94A0FB20E030E04A
:1032D00040EA50E40E94CDFF20E030E040E251E4BB
:1032E0000F94A9000F9411016B017C0160E280EA48
:1032F000C81686E8D80681E0E806F1048CF0C7011C
:10330000B60120EA36E841E050E00E9490FFCA0191
:10331000B9012AE030E040E050E00E9490FF605D9B
:1033200060939B0460E280E1C81687E2D806E1045E
:10333000F1048CF0C701B60120E137E240E050E033
:103340000E9490FFCA01B9012AE030E040E050E05D
:103350000E9490FF605D60939C0460E288EEC81656
:1033600083E0D806E104F1048CF0C701B60128EE31
:1033700033E040E050E00E9490FFCA01B9012AE02A
:1033800030E040E050E00E9490FF605D60939D045B
:1033900060E284E6C816D104E104F1048CF0C701B0
:1033A000B60124E630E040E050E00E9490FFCA0100
:1033B000B9012AE030E040E050E00E9490FF605DFB
:1033C00060939E048AE0882E912CA12CB12CC70119
:1033D000B601A50194010E9490FFC62FCA01B90150
:1033E000A50194010E9490FF605D60939F048EE2AE
:1033F0008093A004C05DC093A1048BE994E0CF91B9
:10340000FF90EF90DF90CF90BF90AF909F908F9004
:1034100008956DEB77E386E095EB3CCF20E030E05C
:1034200040E251E4C701B60149CFCF93DF93EC01ED
:10343000CB01BA010E9441FB20E030E040E251E4C0
:103440000F94A900688379838A839B83DF91CF914E
:1034500008950E9441FB20E030E040E251E40F94E7
:10346000A90002CFCF93DF93EC01CB01BA010E94F8
:1034700041FB2AE037ED43E25DE30F94A9000F948E
:103480001601688379838A839B83DF91CF910895A6
:10349000CF93DF93EC01CB01BA010E9441FB2AE0FC
:1034A00037ED43E25DE30F94A900688379838A8353
:1034B0009B83DF91CF910895CF93DF93EC01CB01F4
:1034C000BA010E9441FB688379838A839B83DF91E1
:1034D000CF910895CF93DF93EC01CB01BA010E9405
:1034E00041FB688379838A839B83DF91CF91089521
:1034F000CF93DF93EC01CB01BA010E9441FB0F9403
:10350000110179836883DF91CF910895CF93DF9381
:10351000EC01CB01BA010E9441FB20E030E04AE718
:1035200054E40F94A900688379838A839B83DF9195
:10353000CF910895CF93DF93EC01CB01BA010E94A4
:1035400041FB20E030E048EC52E40F94A90068838E
:1035500079838A839B83DF91CF910895CF92DF9205
:10356000EF92FF9223EF34E045E35FE36091C706FB
:103570007091C8068091C9069091CA060E94A0FB6E
:103580002AE136EF45E95EE30F94A9006B017C0167
:1035900060910A0770910B0780910C0790910D07BD
:1035A0000E943FFB9B01AC01C701B6010E94A0FB3A
:1035B0000F9438026093DF067093E0068093E10673
:1035C0009093E206FF90EF90DF90CF900895FC017A
:1035D00084910895FC0180810895AF92BF92CF92AB
:1035E000DF92EF92FF920F931F93CF93DF93EC0143
:1035F0005B018A01FB01199587FD16C0C82ED12CED
:10360000F12CE12C2196F801C082D182E282F38272
:10361000CE01DF91CF911F910F91FF90EF90DF903E
:10362000CF90BF90AF900895982F907E903CA9F4D2
:103630008F7190E0B0E0A0E06C017D0156E0CC0C11
:10364000DD1CEE1CFF1C5A95D1F7CE010196F50149
:1036500019958F73C82A2296D6CF982F907F903EC7
:1036600011F58F7090E0B0E0A0E06C017D0136E0D4
:10367000CC0CDD1CEE1CFF1C3A95D1F7CE01019657
:10368000F50119958F73C82A46E0CC0CDD1CEE1CA1
:10369000FF1C4A95D1F7CE010296F50119958F735B
:1036A000C82A2396B0CF982F987F903F79F58770DE
:1036B00090E0B0E0A0E06C017D0186E0CC0CDD1C68
:1036C000EE1CFF1C8A95D1F7CE010196F5011995E4
:1036D0008F73C82A96E0CC0CDD1CEE1CFF1C9A955B
:1036E000D1F7CE010296F50119958F73C82A26E00D
:1036F000CC0CDD1CEE1CFF1C2A95D1F7CE010396E5
:10370000F50119958F73C82A24967DCF982F907C48
:10371000903841F4807C803869F42196CE01F5011F
:103720001995F8CF8E7F8D3F28F02196CE01F501B7
:103730001995F8CFC12CD12C760165CFCF93DF93AB
:10374000DB01F9019C919130C1F0943080F09450EC
:103750009C938830D1F480819181009771F001971A
:1037600091838083480F591FEA01188206C08C3567
:1037700039F49C5F9C93943041F4DF91CF9108958C
:103780008B3339F781E08C93F8CF20813181B901F7
:103790006F5F7F4F71836083420F531FEA018883FD
:1037A000808191818F3591056CF7E7CF0F931F933F
:1037B00081E000919F121091A0122091A1123091EE
:1037C000A21240919B1250919C1260919D12709197
:1037D0009E12041715072607370708F480E01F918B
:1037E0000F91089590E080E0089520910B048330BC
:1037F00021F425FD0CC024FD0CC030E0A90102C05D
:10380000559547958A95E2F7CA018170089581E040
:10381000089580E008958091270484FD0BC0809175
:10382000290487FD07C090912A04937081E019F460
:1038300080E0089581E008952FEB280F2A3108F0E9
:1038400047C0E22FF0E08091270490912804A091D6
:103850002904B0912A0404C0B695A7959795879539
:103860002A95D2F780FD02C081700895E35FFB4F77
:10387000E081EE2341F18091C3069091C406E80FE8
:10388000F92FF11D808190ED980F9A3030F08E3233
:1038900051F4818180538A3098F4F0930004E093CE
:1038A000FF0381E008958D3211F08B3249F481815C
:1038B00090ED980F9A3088F38E3211F48281EACF1E
:1038C000F0E0E0E0EACF109200041092FF03E9CFAD
:1038D00080E00895B1DF882341F081E02091FF036B
:1038E00030910004232B09F480E00895CF92DF92F9
:1038F000EF92FF92CF93DF9300D01F92CDB7DEB748
:103900006B017C0120E030E0A9010E943BFB87FDB8
:103910001CC06DEB77E386E095E3A70196010E945A
:10392000CDFF69837A838B839C8360E2CE0101960D
:103930000E94CEA00F900F900F900F90DF91CF912B
:10394000FF90EF90DF90CF9008956DEB77E386E0E6
:1039500095EBE3CF0E9441FB20E030E04AE754E4DE
:103960000F94A900C3CF63E972E084E690E00E945F
:1039700022A870E060E08AE090E00E9422A86AEB52
:1039800072E084E690E00C9422A88111ECCF68E20A
:1039900070E080E991E00C9422A8CF93DF9300D0EF
:1039A0001F92CDB7DEB70F9416010E943FFB6983CB
:1039B0007A838B839C83CE0101960E944BA00F904B
:1039C0000F900F900F90DF91CF9108950E9441FBCF
:1039D0002AE037ED43E25DE30F94A900DECFCF92FA
:1039E000DF92EF92FF92CF93DF9300D01F92CDB77B
:1039F000DEB76B017C0120E030E0A9010E943BFBB7
:103A000087FD1BC06DEB77E386E095E3A701960188
:103A10000E94CDFF69837A838B839C83CE010196BC
:103A20000E944BA00F900F900F900F90DF91CF91BD
:103A3000FF90EF90DF90CF9008956DEB77E386E0F5
:103A400095EBE4CF0E9441FB2AE037ED43E25DE3D2
:103A50000F94A900C4CF0E9441FBC1CFCF92DF9247
:103A6000EF92FF926B017C0120E030E0A9010E94FF
:103A70003BFB87FD26C06DEB77E386E095E3A7016E
:103A800096010E94CDFF6B017C0120E030E0A9018E
:103A90000E943BFB20E030E040E05FE387FF04C092
:103AA00020E030E040E05FEBC701B6010E94CDFFAF
:103AB0000F941101CB01FF90EF90DF90CF900C9409
:103AC0006AA16DEB77E386E095EBD9CF0E9441FBCD
:103AD000C5CF0E9441FB0F941101CB010C9414A29D
:103AE0000E9441FB20E030E048EC52E40F94A90032
:103AF0000C9451AB0E94C57F48CF0E942E9C33CFBF
:103B00000C94DA820C94DA820C945C820C945C82C1
:103B10000C945C820C945C820E942A9D36CFCF92DA
:103B2000DF92EF92FF920F931F93CF939091150224
:103B3000913009F461C0662351F01092DC031092B9
:103B4000D8031092D9031092DA031092DB03C82F26
:103B50000E94A6D9C090D803D090D903E090DA0390
:103B6000F090DB039B01AC012C193D094E095F0964
:103B700069017A01F7FC40C02091DC03C7FD15C044
:103B80004C2F0C2E000C550B4C5F5F4FE22F022E7A
:103B9000000CFF0B4E175F077CF144EFC42EDD24B1
:103BA000D394E12CF12C2C1734F438EEC32E33E0EF
:103BB000D32EE12CF12CC60ED71EE81EF91EC092A2
:103BC000D803D092D903E092DA03F092DB03022FFC
:103BD000017010E084E2809FB001819F700D701B26
:103BE000112460597C4F82E390E00E9422A88091CA
:103BF000DC038F5F8093DC03CF911F910F91FF90C7
:103C0000EF90DF90CF900895CF92DF92EF92FF92E6
:103C10000F931F93CF93DF9300D000D01F921F927A
:103C2000CDB7DEB78E010F5F1F4FD80130E020E027
:103C3000FB01E20FF31FE491ED932F5F3F4F28301C
:103C40003105B1F7877098E0899FB0011124606455
:103C500083E791E10E949ADA83E790E00197F1F718
:103C60007801E8E0EE0EF11C8BE9C82ED12CF801AA
:103C700061918F0183E791E10E9431BBC6010197F9
:103C8000F1F7E016F10699F728960FB6F894DEBF23
:103C90000FBECDBFDF91CF911F910F91FF90EF909D
:103CA000DF90CF900895CF92DF92EF92FF920F9323
:103CB0001F93CF93DF9300D000D0CDB7DEB78A013A
:103CC00046E0469F9001479F300D1124BC01620FD2
:103CD000731F46E050E0CE0101960E9464FAC9804D
:103CE000DA80EB80FC80F801408151816281738130
:103CF0008FEF9FEFC416D506E606F70640F081E089
:103D000090E04C155D056E057F0508F080E0269675
:103D10000FB6F894DEBF0FBECDBFDF91CF911F91DC
:103D20000F91FF90EF90DF90CF9008950F931F9326
:103D3000CF93DF93CDB7DEB72E970FB6F894DEBFE3
:103D40000FBECDBF8B011E861D86FC016081718177
:103D5000828193816F83788789879A872FEF2B875A
:103D6000603871058105910538F483E791E10E947F
:103D700031BB81E090E02FC09E01235F3F4FAE0139
:103D8000495F5F4F69EB70E08DE590E10E94A9CF3C
:103D900097FD2CC08D859E8526E0289FB001299F28
:103DA000700D1124635A7F4E46E050E0CE0101961B
:103DB0000E9464FA6D8183E791E10E9431BB01307A
:103DC0001105B9F26E816623A1F283E791E10E94A9
:103DD00031BB82E090E02E960FB6F894DEBF0FBEA6
:103DE000CDBFDF91CF911F910F9108959E01235F69
:103DF0003F4FAE01495F5F4F63E670E08BE09EE0AE
:103E00000E94A9CF97FD0BC08D859E8526E0289F37
:103E1000B001299F700D1124655F714FC5CF6FE30D
:103E2000A4CF8091FF0390910004009731F04AE005
:103E300050E070E060E00C945CF960E070E0CB0171
:103E400008950F931F93CF938091FF0390910004E7
:103E50000097E9F0FC018F01C1912C2F2F7D81F09B
:103E6000C53411F0C536B9F7F801108270E060E092
:103E70000E94DCF6F801C083CF911F910F91089545
:103E800070E060E0CF911F910F910C94DCF660E040
:103E900070E0CB01F1CF4F925F926F927F92AF9221
:103EA000BF92CF92DF92EF92FF920F931F93CF9327
:103EB0008CEAA82E82E0B82E9FEAE92E94E0F92E33
:103EC0000AE512E026E9C22E2DE0D22EC0E0F5016F
:103ED00081915F01FFDC882309F476C0B2DF2B01FA
:103EE0003C018C2F82DC882309F464C0F801208116
:103EF000318142815381C301B2010E94CDFFF7019C
:103F00006083718382839383CF5FF4E0EF0EF11CB3
:103F10000C5F1F4F84E0C80ED11CC330C1F685E48E
:103F2000D9DC882309F45BC08CDF6B017C0183E062
:103F30005CDC882371F02091660230916702409129
:103F4000680250916902C701B6010E94CDFF6B0162
:103F50007C01C092BB04D092BC04E092BD04F092FC
:103F6000BE0486E4B7DC8823B9F06BDF20E030E0E4
:103F7000A9010F94F30118167CF463DF20E030E010
:103F800040E752E40F94A90060931C0270931D0255
:103F900080931E0290931F02CF911F910F91FF906B
:103FA000EF90DF90CF90BF90AF907F906F905F9039
:103FB0004F900895F6012081318142815381C301E0
:103FC000B2010E94CCFF9BCFF80180819181A28138
:103FD000B381F70180839183A283B38395CF8091CE
:103FE000660290916702A0916802B0916902809385
:103FF000BB049093BC04A093BD04B093BE04B1CFA6
:104000008091FF0390910004009731F04AE050E066
:1040100070E060E00C9431F860E070E0CB0108954E
:10402000CF93DF93EB0156DC882311F0E9DFEB013E
:10403000CE01DF91CF910895E3DFCB010895CF93B7
:10404000DF93EB0147DC882319F0DF91CF91F4CFA8
:10405000CE01DF91CF910895D3DF97FD0AC0D0DF65
:104060006F3F71058105910509F02CF4C9DF862F9A
:10407000089580E008958FEF08958091FF03909157
:104080000004892B39F0E8DF91E0811101C090E054
:10409000892F089591E0FCCFCF93DF93C82FD62FBF
:1040A00019DC882319F0DF91CF91E7CF8C2FC4DB87
:1040B000811101C08D2FDF91CF910895382F10927B
:1040C000BE068091A9069091AA06A091AB06B09178
:1040D000AC06B7FF08C01092A9061092AA0610926B
:1040E000AB061092AC062091A90620939D06109273
:1040F000B906809197061816ECF4082E000C990B5F
:10410000831B9109022E000C330B2817390794F0FA
:1041100097FF02C090E080E080939D06092E000C7E
:10412000AA0BBB0B8093A9069093AA06A093AB069B
:10413000B093AC0680919D066623A9F09091A306EA
:10414000891714F48093A3062091A306022E000C75
:10415000330B2D5F3F4F482F082E000C550B2417B3
:1041600035071CF483508093A3060895E0918C04D6
:10417000E63028F581E08E0F80938C044091A906EB
:104180005091AA066091AB067091AC062091A306EF
:10419000909197068091950439E0E39FF0011124F6
:1041A000EA5AFB4FA0917111B0917211B183A083B3
:1041B000428353836483758326839783808708951E
:1041C000CF93DF93CDB7DEB78E81282F082E000C5A
:1041D000330B9091B7109217130609F09CF480935B
:1041E000B7109E01275F3F4F4F81588560E570E013
:1041F00086E690E10E9403FB109265101092641015
:1042000010926310DF91CF9108950F931F93CF9376
:10421000DF938C016F3F19F41092B71060E020918A
:10422000B710862F062E000C990B2817190609F0D7
:1042300024F56093B710C8010E948AFA800F911F7D
:10424000EC01C01BD10BC135D1053CF00197FC013D
:104250002491207C2038D1F3F3CFDD27AE01B801C3
:1042600086E690E10E94ABFACA59DF4E188210929E
:1042700065101092641010926310DF91CF911F911E
:104280000F9108950F931F930E94A6D9009149049E
:1042900010914A0420914B0430914C04601B710B27
:1042A000820B930B97FD0CC086B186FB882780F9A3
:1042B00091E08927349B8260329B8460809348041C
:1042C0008091480481709091480491FD82609091A2
:1042D0004704981749F0813009F148F0823079F0AD
:1042E000833091F0809347041F910F91089591308E
:1042F00079F09230B9F7909146049F5F0CC09923F2
:1043000039F09330C1F3EECF9130A9F3923051F7E9
:1043100090914604915090934604E4CF992359F329
:10432000933001F7F5CFCF92DF92EF92FF92CF93C8
:10433000C82F0E94A6D96B017C0124EA30E74DE723
:104340005FE36091160270911702809118029091BC
:1043500019020E943BFB87FD18C08AEF90E0A0E0A5
:10436000B0E08C0D9D1DAE1DBF1D80933604909353
:104370003704A0933804B0933904C0930A02CF9154
:10438000FF90EF90DF90CF90089580E090E0DC0107
:10439000E8CFCF92DF92EF92FF920F931F930E948C
:1043A000A6D9009131041091320420913304309148
:1043B00034046B017C01C01AD10AE20AF30A9701A6
:1043C000860137FD11C020913004209520933004E0
:1043D0006A547C4F8F4F9F4F609331047093320427
:1043E000809333049093340481E0909130049111D0
:1043F00001C080E01F910F91FF90EF90DF90CF9070
:104400000895FC0180E0309749F09491992331F0B0
:10441000907C903809F08F5F3196F7CF0895009720
:1044200051F0FC0180E09191992331F0907C90381B
:10443000D1F38F5FF8CF80E0089562E275E180E00C
:10444000E3DB6AE175E181E0DFDB62E175E182E0F7
:10445000DBDB6AE075E186E0D7DB62E075E187E0EF
:10446000D3DB6AEF74E183E0CFDB62EF74E184E0D9
:10447000CBDB6AEE74E185E0C7CB20E030E040E0C2
:104480005FE36091F1047091F2048091F3049091E4
:10449000F4040E94CDFF0F941101CB010895CF9336
:1044A000823061F4C4E0C15058F088E0C89FB00188
:1044B00011246D547B4E8C2FA7DBF5CFCF91BDCF50
:1044C000CF9108950F931F93522F20917111309126
:1044D00072112817390791F1109294049093721178
:1044E000809371118B0130E020E00093A9061093B6
:1044F000AA062093AB063093AC064093A3065093D4
:1045000097068E509B4321F41092950410928C04D0
:1045100083E791E10E94A2DA81E02091711130914C
:1045200072112E503B4309F080E0B9DF82E08093A6
:10453000540281E08093B90610928F041F910F916D
:10454000089520E040E070E060E08EE09BE3BACFA9
:10455000CF930E942E9C0E94C57FC82F882319F0FC
:1045600080E00E94177F8C2F10DACF91EACF8CEE7B
:1045700096E19093550680935406E3CF0F931F93D3
:10458000CF93DF93CDB7DEB76E970FB6F894DEBF4B
:104590000FBECDBF8091A206282F082E000C330B32
:1045A000F901EE0FFF1FE55FFD4F91819F93908111
:1045B0009F933F938F9389E196E19F938F938E0111
:1045C0000F5F1F4F1F930F930E94D4FA4FE350E0E9
:1045D000B80186E596E00F94EA02B3DF0FB6F894CF
:1045E000DEBF0FBECDBF6E960FB6F894DEBF0FBE16
:1045F000CDBFDF91CF911F910F910895CF93DF939E
:10460000C0918C04CC23B1F0C150C0938C0489E0DC
:10461000C89FE0011124CA5ADB4F6A817B812F8138
:104620004E81888199814EDF888580939504DF9142
:10463000CF910895DF91CF9184CF4F925F926F9287
:104640007F928F929F92AF92BF92CF92DF92EF9222
:10465000FF921F93CF93DF93CDB7DEB760970FB66E
:10466000F894DEBF0FBECDBF0E94A6D96B017C01BE
:1046700080910A028F3F09F447C00E94A6D980901A
:10468000360490903704A0903804B090390468192B
:1046900079098A099B0997FD37C08091171190917C
:1046A00018118F5F8F70891779F1E0910A0280E00D
:1046B00090E0A5E0B3E4E43050F424E0E29FF001A0
:1046C0001124E055FD4F80819181A281B3818D87B6
:1046D0009E87AF87B88B19821A821B821C821D822B
:1046E0001E821F82188619861A861B861C86AE01BA
:1046F0004F5F5F4FBE01635F7F4F8AE592E00E948C
:1047000053D38FEF80930A02BDDD8091480482FF6E
:1047100033C080914504811131C091E090934504EC
:1047200080914D0489278093980610924D0483E070
:1047300080935402109248040E94A6D96C507E4F78
:104740008F4F9F4F6093490470934A0480934B04AA
:1047500090934C0468E873E182E090E00E9422A804
:1047600016E0115059F00E94C6A762E070E080E0A8
:1047700090E00E940CD9F5CF10924504809141043D
:1047800090914204A0914304B0914404A701960182
:10479000281B390B4A0B5B0BDA01C901B7FDB9C104
:1047A000D701C6018C599F4FAF4FBF4F8093410433
:1047B00090934204A0934304B09344046091460450
:1047C000062E000C770B77FF03C071956195710978
:1047D000909146048091400498139AC0633008F089
:1047E00097C0109246048091460480934004643040
:1047F00008F09EC08091980681111CC180917111B2
:10480000909172113BE38E30930709F037C180918C
:104810005502882309F420C18150809355020E94DB
:10482000CB858090E7069090E806A090E906B090CE
:10483000EA0681110E94D88520915402222309F4AE
:104840004BC0D501C4014AE0B695A79597958795C9
:104850004A95D1F7009751E0A507B10520F08FEFF9
:104860009FEFA0E0B0E096958795009739F04091D2
:104870003A0450913B044817590770F5223038F03C
:10488000243008F42AC1243011F410925402E0912B
:104890007111F09172111995109298068091711111
:1048A000909172118E509B43F9F40E94A6D9DC01BD
:1048B000CB018C199D09AE09BF0980903A049090F4
:1048C0003B04B12CA12C88169906AA06BB0620F43D
:1048D00090933B0480933A048091711190917211EE
:1048E0008E509B4309F4FDC0809195048111F9C05D
:1048F00080913C0490913D04A0913E04B0913F040E
:10490000C81AD90AEA0AFB0AF7FCF9C01ADEF7C08E
:10491000633009F068CF8091460487FD07C081E0CD
:10492000880F880F8093460464E05DCF8FEFF8CF47
:104930008091BE0621E030E040E050E0882309F499
:1049400056C08090BA069090BB06A090BC06B0906E
:10495000BD0681149104A104B104E9F170E090E076
:1049600080E00E943FFB20E030E040E85EE30E94F0
:10497000A0FB2B013C01C701B601681979098A091E
:104980009B090E943FFB9B01AC01C301B2010F9444
:10499000A90020E030E04AE754E40E94A0FB4B016C
:1049A0005C0120E030E040EA52E40F94F30124E699
:1049B00030E040E050E087FF12C020E030E040EF00
:1049C00051E4C501B4010F94F3012AE030E040E066
:1049D00050E087FF04C021E030E040E050E0C092AA
:1049E000BA06D092BB06E092BC06F092BD06A0913A
:1049F00046040A2E000CBB0B0E94C6FF24E030E0E8
:104A000040E050E00E9490FF8091A9069091AA0694
:104A1000A091AB06B091AC06820F931FA41FB51FE7
:104A20008093A9069093AA06A093AB06B093AC0618
:104A300010924604D701C6018856954CAF4FBF4F20
:104A400080933C0490933D04A0933E04B0933F04B4
:104A500081E080935402D2CE89E080935502809108
:104A60003A0490913B04009729F0019790933B04FE
:104A700080933A0481E080935402D1CE8B52994BBB
:104A800009F0CDCE809155029FEF980F909355027B
:104A90008111C5CE8091BF068F5F8093BF06909134
:104AA000C00624E0891708F02CE0209355029817DF
:104AB00010F41092BF0681E080935402D701C60122
:104AC0008856954CAF4FBF4F80933C0490933D0464
:104AD000A0933E04B0933F04A2CE81E080935402A1
:104AE000D6CE48E9C40E4AE3D41EE11CF11CC092A4
:104AF0003C04D0923D04E0923E04F0923F04809149
:104B000054028130E1F0833021F483E791E10E9487
:104B1000A2DA60960FB6F894DEBF0FBECDBFDF916C
:104B2000CF911F91FF90EF90DF90CF90BF90AF900B
:104B30009F908F907F906F905F904F90089510920C
:104B40005402E7CF8093970420E040E070E060E0FB
:104B500087E799E2B7CCCF9380914E04811109C0C9
:104B600080E895E190938E0480938D0481E080939A
:104B70004E04FCDA20E040E070E060E085E69AE276
:104B8000A1DCC1E0C09395040E94FD8210929504BF
:104B900035DDC093950460E083ED91E336DB8CE76F
:104BA00095E19093550680935406CF91089520E0A7
:104BB00044E064E183E791E10E94A9DA81E0209179
:104BC0007111309172112E503B4309F080E067DC87
:104BD00083E791E10C94A2DAEADF3E98469A3C988A
:104BE000449A3A98429A4EDB109246040C9426D08E
:104BF0006FEF7FEF9BC8AF92BF92CF92DF92EF92A1
:104C0000FF920F931F93CF93DF9300D01F92CDB7E6
:104C1000DEB76C015B017A0110E000E00E151F05A4
:104C2000C8F4AE014F5F5F4FB501C6010E94ED1A97
:104C30006C0189819A81AB81BC81892B8A2B8B2B5A
:104C400049F0B701601B710BCE0101966FD8080FB8
:104C5000191FE4CFC8010F900F900F900F90DF91B4
:104C6000CF911F910F91FF90EF90DF90CF90BF9069
:104C7000AF9008958F929F92AF92BF92CF92DF92A2
:104C8000EF92FF920F931F93CF93DF9300D000D04A
:104C90001F921F92CDB7DEB77C01162F5A01490132
:104CA000862F660F990B9C0124553D4F6901101604
:104CB0000CF042C0AE014B5F5F4F67EE7AE1C70177
:104CC0000E94ED1A7C018D819E81AF81B88500978D
:104CD000A105B10589F18D339105A105B10509F44F
:104CE00076C08E379105A105B10509F470C08A32EE
:104CF0009105A105B105A1F517FF0FC08EE295E161
:104D00001E3F11F08AE295E1402F002E000C550B5A
:104D100067EE7AE170DF081B92C085E490E0A0E0C6
:104D2000B0E089839A83AB83BC83CE01019660DFB8
:104D3000015009F04EC000E0802F28960FB6F8947D
:104D4000DEBF0FBECDBFDF91CF911F910F91FF90BE
:104D5000EF90DF90CF90BF90AF909F908F9008958D
:104D600084329105A105B105C1F48114910451F07B
:104D7000402F002E000C550B67EE7AE1C4013BDF9B
:104D8000081B95CFA114B104E9F0402F002E000CB0
:104D9000550B6AEE7AE1C501F2CF80349105A10589
:104DA000B10581F40150F6018081082E000C990BA9
:104DB000AA0BBB0B89839A83AB83BC83CE0101967C
:104DC00017DF75CFCE01059613DF015070CF17FDA9
:104DD00095CF81E04D815E816F8178854D3351059E
:104DE0006105710509F480E0810F8A30C4F001503B
:104DF0006AE00E945CFF192F082E000C990BC096E8
:104E0000092E000CAA0BBB0B89839A83AB83BC834E
:104E1000CE010196EDDE002309F48DCF812F082EFF
:104E2000000C990BC096092E000CAA0BBB0B8983B2
:104E30009A83AB83BC83CE010196DADE0150002356
:104E400009F479CF402F002E000C550B67EE7AE164
:104E5000C701D1DE081B70CF4FEF5FEF6AEE7AE13A
:104E6000CACE4FEF5FEF67EE7AE1C5CE0F931F9387
:104E7000CF93DF9300D000D01F921F92CDB7DEB743
:104E800000916A0210916B0220916C0230916D02C8
:104E90000D831E832F83388700916E0210916F025D
:104EA000209170023091710209831A832B833C8315
:104EB00090917A11691710F06FEF690F262F30E08B
:104EC00040917B112C0F3D1FF901403199F4943032
:104ED00089F46181680F606883E791E128960FB6D5
:104EE000F894DEBF0FBECDBFDF91CF911F910F9120
:104EF0000C949ADA6581EECFFC01A081B1811C92FD
:104F0000A281B3818C918F5F8C930280F381E02D1D
:104F1000608180E0ABCF4F925F926F927F928F92D1
:104F20009F92BF92CF92DF92EF92FF920F931F93C7
:104F3000CF93DF9300D000D01F921F92CDB7DEB782
:104F40007C013B016A014901FB016081FC01808118
:104F50008DDFC114D10469F1FA82E9827C826B820F
:104F6000011120C0AE014B5F5F4FB401C6010E942A
:104F7000ED1A6C018D819E81AF81B885892B8A2BBA
:104F80008B2BB9F0CE01059633DEF70180818F5F60
:104F90008083843138F3CE010196AEDFE3CFB12CAC
:104FA000860129C08601B12C26C0452846284728FD
:104FB000B1F728960FB6F894DEBF0FBECDBFDF91D4
:104FC000CF911F910F91FF90EF90DF90CF90BF9006
:104FD0009F908F907F906F905F904F900895B394C3
:104FE00007C0B1102EC001151105C9F20F5F1F4F88
:104FF00001151105A9F2AE014B5F5F4FB401C60167
:105000000E94ED1A6C014D805E806F80788441149F
:10501000510461047104A9F0F0E24F1651046104D7
:105020007104F9F2D301C2018D97A109B109029768
:10503000A105B10530F04BE244165104610471043E
:1050400071F6F7018081482F4B0D5527551F4531CB
:1050500051052CF0853018F0CE0101964DDF81E02E
:10506000411451046104710409F480E0B80EF701A1
:1050700080818B0D8083BB2009F497CFBA94AE0159
:105080004B5F5F4FB401C8010E94ED1A8C01CE0145
:105090000596AEDDF0CF2F923F924F925F926F92C6
:1050A0007F928F929F92AF92BF92CF92DF92EF92B8
:1050B000FF920F931F93CF93DF9300D000D0CDB713
:1050C000DEB74C013B015A012E83232E280181E0DB
:1050D000809395044091A9065091AA066091AB0671
:1050E0007091AC06411551056105710571F01416FA
:1050F00015060CF080E080938F041092A9061092A0
:10510000AA061092AB061092AC0610918F04309054
:10511000980610929806311005C080915402882399
:1051200009F4ACC0C2016DD9082F80E0C114D104CC
:1051300011F0C60166D91D821982E114F104B1F49F
:10514000402F50E0282F30E0CA01820F931F45976F
:105150006CF484E190E0841B950B821B930B97FD0C
:105160000196959587958D8381E0898301E027EEEF
:105170003AE1A201BE016F5F7F4FCE010596CBDE03
:10518000E114F10489F08D81882321F01D82898149
:105190008F5F898300E02AEE3AE1A701BE016F5FCD
:1051A0007F4FCE010596B7DEC114D10451F000E067
:1051B00027EE3AE1A601BE016F5F7F4FCE01059653
:1051C000AADE63E080E052DE8BE590E0A0E0B0E094
:1051D000112321F080E290E0A0E0B0E089839A837F
:1051E000AB83BC83CE01019603DDC3013ADE8DE5BE
:1051F00090E0A0E0B0E0112321F080E290E0A0E098
:10520000B0E089839A83AB83BC83CE010196F0DC46
:10521000C401F7D863E092E1981B892F27DE80E272
:1052200090E0A0E0B0E0112321F08BE590E0A0E059
:10523000B0E089839A83AB83BC83CE010196D8DC2E
:10524000C4010FDE80E290E0A0E0B0E0112321F085
:105250008DE590E0A0E0B0E089839A83AB83BC83C6
:10526000CE010196C5DC332049F0111102C0AE8099
:10527000B22CA114B104D9F0F501199526960FB6F8
:10528000F894DEBF0FBECDBFDF91CF911F910F917C
:10529000FF90EF90DF90CF90BF90AF909F908F9056
:1052A0007F906F905F904F903F902F900895A6D978
:1052B000E5CFCF92DF92EF92FF920F931F938EED87
:1052C000C82E86E1D82EF12CE12C01EF16E130E05A
:1052D00020E048EA52E260EE76E187EE96E1DBDE1E
:1052E0001F910F91FF90EF90DF90CF900895AF92B4
:1052F000BF92CF92DF92EF92FF920F931F93CF93C3
:10530000DF93CDB7DEB7ADB6BEB687ED95E179D800
:1053100090E001962DB73EB7281B390B0FB6F894D5
:105320003EBF0FBE2DBF8DB79EB701967C0167EDC6
:1053300075E10E9483FA8091970404EA15E18130B7
:1053400031F00FE815E1823011F007EB15E188EC40
:10535000C82E85E1D82E21EA32E248EA52E26AEC10
:1053600075E181ED95E197DE0FB6F894BEBE0FBEF4
:10537000ADBEDF91CF911F910F91FF90EF90DF9025
:10538000CF90BF90AF9008954F925F926F927F92AF
:10539000AF92BF92CF92DF92EF92FF920F931F9343
:1053A000CF93DF9300D01F92CDB7DEB76B01142FE0
:1053B0007901682F80E05ADDA12CC114D10419F0C5
:1053C000C6011FD8A82EB12CE114F10419F0C701B1
:1053D00026D8B82E04E110FF23C084E190E08A199A
:1053E0009109A7FC93958B199109B7FC939597FDAB
:1053F00001969595879504E11BEE180F30E2432E38
:10540000512C612C712C812F800F87FD09C049829E
:105410005A826B827C82CE010196EADB0150F3CF87
:10542000AA2069F02091A0063091A10640919E0625
:1054300050919F066091A206C6011CDC082FBB207C
:1054400049F0402F002E000C550B6AEE7AE1C7019F
:10545000D2DB081B80E2C82ED12CE12CF12C1016D7
:105460004CF4C982DA82EB82FC82CE010196C0DB69
:105470000150F5CF0F900F900F900F90DF91CF91CB
:105480001F910F91FF90EF90DF90CF90BF90AF9062
:105490007F906F905F904F9008958091900481115C
:1054A00005C010929504AAD80E94B31C80915402A2
:1054B000882339F030E020E041E06BE677E181E0DD
:1054C00063DF82E080935402089580915402882320
:1054D00049F060918D0470918E0430E020E041E04D
:1054E00081E052CF0895CF93DF93EA01BFDCCE0174
:1054F000DF91CF917DCB8F929F92AF92BF92CF924F
:10550000DF92EF92FF920F931F93CF93DF9300D020
:105510001F92CDB7DEB76C017B018090A006909002
:10552000A106A0909E06B0909F061091A20661E091
:1055300080E09CDC03E19401A501612FC6019ADBA8
:10554000182FE114F10429F18AE390E0A0E0B0E023
:1055500089839A83AB83BC83CE01019649DBC70163
:105560000E940F228F5F115061E0181708F462E06B
:1055700000E210E020E030E009831A832B833C83B3
:10558000AE014F5F5F4F94E1981B892FACDFC701DD
:1055900063DC0F900F900F900F90DF91CF911F91D0
:1055A0000F91FF90EF90DF90CF90BF90AF909F90C2
:1055B0008F900895CF92DF92EF92FF92CF93DF9377
:1055C00000D01F92CDB7DEB7809198061092980652
:1055D000882331F1809191048F5F8093910483300F
:1055E000E0F081E08093900420E040E070E060E033
:1055F0008DE49AE20E94622281E897E19093550639
:10560000809354060F900F900F900F90DF91CF91E1
:10561000FF90EF90DF90CF9008950E943BB6F2CFBD
:105620006091A9067091AA068091AB069091AC0694
:10563000611571058105910509F43EC00E9441FB89
:105640002DEC3CEC4CEC5CE30E94A0FB2091620250
:105650003091630240916402509165020E94CDFF37
:105660006B017C0120E030E040E050EC0E943BFB0D
:1056700087FD52C020E030E040E050E4C701B601B1
:105680000F94F30118160CF44DC0C0926202D09230
:105690006302E0926402F092650288EC92E00E945C
:1056A000579582E0809354021092A9061092AA06A0
:1056B0001092AB061092AC0680915402882309F434
:1056C000A1CFC0906202D0906302E0906402F0909B
:1056D000650220E030E0A901C701B6010E943BFB52
:1056E00027E137EB41ED58E387FF04C027E137EBB3
:1056F00041ED58EBC701B6010E94CDFF69837A8363
:105700008B839C836BE2CE0101960E94CEA0BC01EC
:105710008AE797E1F0DE76CFC12CD12CE12C90EC1A
:10572000F92EB3CFC12CD12CE12C80E4F82EADCFD3
:105730000F931F93CF93DF93FC01EB018091A90698
:105740009091AA06A091AB06B091AC06B7FF08C035
:105750001092A9061092AA061092AB061092AC06FF
:105760008091AD069091AE06A091AF06B091B006C3
:105770004091A9065091AA066091AB067091AC06C3
:1057800084179507A607B70744F48093A90690935A
:10579000AA06A093AB06B093AC068091540288236E
:1057A000D9F06091A9067091AA068091AB069091FC
:1057B000AC060091B1061091B2062091B30630916B
:1057C000B406600F711F821F931F1995BC01809151
:1057D000B7069091B8068FDE80919806811108C0B7
:1057E0008091A6068823D1F1809154028823B1F1DB
:1057F0008091B5069091B6060097B1F04091A90648
:105800005091AA066091AB067091AC060091B1066A
:105810001091B2062091B3063091B406400F511F8B
:10582000621F731FFE011995E091A706F091A8066B
:10583000309741F08091A606811103C080919806AF
:10584000811119958091980610929806882331F05D
:10585000DF91CF911F910F910C94FE22DF91CF9198
:105860001F910F91089565E17AE189E29AE160CF95
:1058700062E37AE186EE9CE15BCF68E47AE182E262
:105880009DE156CF6AE67AE18BE29DE151CF68E770
:105890007AE189E69DE14CCF6CE57AE186E69DE10F
:1058A00047CF66E87AE18AEA9CE142CF6AE97AE189
:1058B00080E79DE13DCF4F925F926F927F929F92E2
:1058C000AF92BF92CF92DF92EF92FF920F931F930E
:1058D000CF93DF9300D01F92CDB7DEB7982EB62EB0
:1058E0006A017901A02E2115310509F485C0C9018D
:1058F000002309F443C00E940122182F8EE390E098
:10590000A0E0B0E0911004C080E290E0A0E0B0E040
:1059100089839A83AB83BC83AE014F5F5F4F6B2D4E
:1059200080E0E1DD02E1011B2091A0063091A1069B
:1059300040919E0650919F066091A206C6019AD999
:10594000082F112331F18AE390E0A0E0B0E08983D1
:105950009A83AB83BC83CE0101964AD980E2482E5C
:10596000512C612C712C002361F049825A826B8288
:105970007C82CE0101963CD90150F5CF0E940F22C6
:10598000BCCFAA20D1F04FEF5FEF67EE7AE1C701FD
:1059900032D90F900F900F900F90DF91CF911F9100
:1059A0000F91FF90EF90DF90CF90BF90AF909F90BE
:1059B0007F906F905F904F900895C7014DDAE9CFC7
:1059C0008EE390E0A0E0B0E089839A83AB83BC8350
:1059D000AE014F5F5F4F6B2D80E085DD2091A0060B
:1059E0003091A10640919E0650919F0602E1609180
:1059F000A206C6013FD9CDCF8111E2CF10E084CFFE
:105A0000CF92DF92EF92FF920F931F93CF93DF938A
:105A100000D01F92CDB7DEB77A01102F811101C0DF
:105A200020E2822F220F990BAA0BBB0B89839A834A
:105A3000AB83BC83AE014F5F5F4F80E054DD2091AC
:105A4000A0063091A10640919E0650919F0602E16A
:105A50006091A206C7010ED9082F80E2C82ED12C72
:105A6000E12CF12C002349F0C982DA82EB82FC821E
:105A7000CE010196BDD80150F5CF012F110F110BAA
:105A8000220B330B09831A832B833C83CE010196AF
:105A9000AFD80F900F900F900F90DF91CF911F9183
:105AA0000F91FF90EF90DF90CF9008958F929F928B
:105AB000AF92BF92CF92DF92EF92FF920F931F931C
:105AC000CF93DF93CDB7DEB760970FB6F894DEBF04
:105AD0000FBECDBF80E1E2E7F2E0DE01119601905A
